:100000000C94EF010C9420020C9420020C9420021A
:100010000C9420020C9420020C9420020C942002D8
:100020000C9420020C9420020C9420020C942002C8
:100030000C9420020C9420020C9420020C942002B8
:100040000C9420020C9420020C9420020C942002A8
:100050000C9420020C9420020C9420020C9475093C
:100060000C9420020C943F090C9415090C94200266
:100070000C9420020C9420020C9420020C94200278
:100080000C9420020C9420020C9420020C94200268
:100090000C9420020C9420020C9420020C94200258
:1000A0000C9420020C9420020C9420020C94200248
:1000B0000C9420020C9420020C9420020C94200238
:1000C0000C9420020C9420020C9420020C94200228
:1000D0000C9420020C9420020C9420020C94200218
:1000E0000C9420020C9491030C9472020C94200343
:1000F0000C94FD040C94BF090C945D050C94F10B59
:100100000C946C030C944F020C9470030C948303B6
:100110000C9495030C948B030C9479030C94990321
:100120000C949E030C9464030C945E020C945E0386
:100130000C94B8020C9487030C949F030C946803EE
:100140000C9434050C9422020C947D030C94A303AC
:100150000C9473030C9480020C94880545786563B5
:100160007574696F6E2063616E63656C6C65642085
:10017000696E697420636F6E646974696F6E732051
:100180006E6F74206D617463682E0A0D0050617586
:100190007365642E0A0D0052756E6E696E672E0AC5
:1001A0000D00556E6B6E6F776E20636F6D6D616EB7
:1001B000642E205573652068656C7020636F6D6DCB
:1001C000616E642E0A0D000D0A68656C7020202097
:1001D00020202020202020203A2053686F77732091
:1001E000757361626C6520636F6D6D616E64732EF3
:1001F0000A0D696E697420202020202020202020F4
:10020000203A2053657473206D616368696E6520C0
:10021000656C656D656E747320746F20696E6974AA
:1002200069616C20636F6E646974696F6E732E0A06
:100230000D72756E202020202020202020202020DC
:10024000203A2052756E20746865206D61696E20B9
:1002500070726F6772616D2E0A0D0A0D7061757391
:10026000652020202020202020203A205061757316
:100270006520746865206D61696E2070726F6772A9
:10028000616D2E0A0D726573756D6520202020202A
:1002900020203A20526573756D6520746865206D65
:1002A00061696E2070726F6772616D2E0A0D0000B9
:1002B000002100240027002A002D00300033000117
:1002C000010000040107010A0100002200250028A6
:1002D000002B002E0031003400020100000501084F
:1002E000010B01000020002300260029002C002F14
:1002F00000320000010000030106010901050505A7
:1003000005070508080808020202020A0A0808048C
:1003100004040401010101010101010303030303BA
:10032000030303040707070C0C0C0C0C0C0C0C0249
:1003300002020206060606060606060B0B0B0B0B50
:100340000B0B0B0102102020080810204010204049
:100350008002010201080402010102040810204089
:1003600080804020100804020180040201804020A7
:1003700010080402010804020101020408102040D0
:1003800080010204081020408000000A0B02090CC2
:100390000D0E08070304010000000000000000002B
:1003A000000000000000000000000000000000004D
:1003B000000000000012111000000000000000000A
:1003C00000000000000000000000000000000053DA
:1003D000746F707065642E0A0D00BF09F10B112453
:1003E0001FBECFEFD1E2DEBFCDBF00E00CBF23E0E8
:1003F000A6EFB2E001C01D92A73DB207E1F712E0FF
:10040000A0E0B2E0E0E6FDE100E00BBF02C0079033
:100410000D92A63FB107D9F711E0CEEED1E000E092
:1004200006C021970109802FFE010E94690CCD3E74
:10043000D10780E00807A9F70E94090A0C949E0ED4
:100440000C940000AF92BF92CF92DF92EF92FF9296
:100450000F931F93CF93DF936C017B018B01040FEC
:10046000151FEB015E01AE18BF08C017D10759F088
:100470006991D601ED91FC910190F081E02DC601CA
:100480001995892B79F7C501DF91CF911F910F91B4
:10049000FF90EF90DF90CF90BF90AF900895FC0158
:1004A000538D448D252F30E0842F90E0821B930BD9
:1004B000541710F0CF96089501970895FC01918D7F
:1004C000828D981761F0A28DAE0FBF2FB11D5D9682
:1004D0008C91928D9F5F9F73928F90E008958FEF24
:1004E0009FEF0895FC01918D828D981731F0828DD8
:1004F000E80FF11D858D90E008958FEF9FEF08952F
:10050000FC01918D228D892F90E0805C9F4F821B92
:1005100091098F73992708958DE293E00E948002DC
:1005200021E0892B09F420E0822F0895FC01A48D9D
:10053000A80FB92FB11DA35ABF4F2C91848D90E005
:1005400001968F739927848FA689B7892C93A089E8
:10055000B1898C91837080648C93938D848D981372
:1005600006C00288F389E02D80818F7D8083089505
:10057000EF92FF920F931F93CF93DF93EC0181E0F3
:10058000888F9B8D8C8D98131AC0E889F98980819A
:1005900085FF15C09FB7F894EE89FF896083E889CD
:1005A000F98980818370806480839FBF81E090E0BF
:1005B000DF91CF911F910F91FF90EF900895F62E4C
:1005C0000B8D10E00F5F1F4F0F731127E02E8C8DE6
:1005D0008E110CC00FB607FCFACFE889F98980812B
:1005E00085FFF5CFCE010E949602F1CFEB8DEC0F87
:1005F000FD2FF11DE35AFF4FF0829FB7F8940B8F48
:10060000EA89FB8980818062CFCF0F931F93CF93BC
:10061000DF938C01D0E0C0E0F801EC0FFD1F649186
:10062000662341F08DE293E00E94B802892B11F01D
:100630002196F2CFCE01DF91CF911F910F910895B6
:10064000CF93DF93EC01888D8823B9F0AA89BB8909
:10065000E889F9898C9185FD03C0808186FD0DC0F4
:100660000FB607FCF7CF8C9185FFF2CF808185FF15
:10067000EDCFCE010E949602E9CFDF91CF91089590
:100680008150823108F05AC0E82FF0E08827E45BFF
:10069000FC4F8F4F0C94690C6C0370035E03640372
:1006A00068039E03730379037D03830387038B032E
:1006B000910395039E0399039F03A30380918000F8
:1006C0008F77809380000895809180008F7DF9CF8F
:1006D00080918000877FF5CF84B58F7784BD0895A2
:1006E00084B58F7DFBCF8091B0008F778093B00071
:1006F00008958091B0008F7DF9CF809190008F7721
:10070000809390000895809190008F7DF9CF809123
:100710009000877FF5CF8091A0008F778093A00015
:1007200008958091A0008F7DF9CF8091A000877FF0
:10073000F5CF809120018F778093200108958091DB
:1007400020018F7DF9CF80912001877FF5CFCF9356
:10075000DF93282F30E0F901E757FC4F8491F9012E
:10076000ED5BFC4FD491F901E350FD4FC491CC23D4
:10077000A1F081110E944003EC2FF0E0EE0FFF1F6B
:10078000ED51FD4FA591B491EC91ED2381E090E006
:1007900009F480E0DF91CF91089580E090E0FACFF6
:1007A0001F93CF93DF93282F30E0F901E757FC4FD9
:1007B0008491F901ED5BFC4FD491F901E350FD4FB9
:1007C000C491CC23A9F0162F81110E944003EC2F75
:1007D000F0E0EE0FFF1FE753FD4FA591B4918FB7E7
:1007E000F894EC91111108C0D095DE23DC938FBFF3
:1007F000DF91CF911F910895DE2BF8CFCF93DF9338
:1008000090E0FC01ED5BFC4F249183509D4FFC0177
:1008100084918823D1F090E0880F991FFC01E15565
:10082000FD4FA591B491FC01E753FD4FC591D491C3
:1008300061110EC09FB7F8948C91E22FE0958E2342
:100840008C932881E223E8839FBFDF91CF910895A5
:100850008FB7F894EC91E22BEC938FBFF6CF3FB7B4
:10086000F8948091FC029091FD02A091FE02B0915B
:10087000FF0226B5A89B05C02F3F19F00196A11DC8
:10088000B11D3FBFBA2FA92F982F8827BC01CD01DA
:10089000620F711D811D911D42E0660F771F881F39
:1008A000991F4A95D1F70895E7E0F3E0108284E0BC
:1008B000818382E0809329038FEF9FEF9093010261
:1008C0008093000210922A0310922B0381E0809300
:1008D0002C0361E08BE00E94D00360E08CE00E947A
:1008E000D00360E08DE00E94D00387E991E00C9492
:1008F000050310922C0360E08BE00E94D00361E0BE
:100900008CE00E94D00360E08DE00E94D0038DE86F
:1009100091E00C94050380910403813011F40C9450
:100920007904089560E08091D0030E94D003809103
:100930002A038F5F80932A030C948B04FC0101909F
:100940000020E9F73197AF01481B590BBC018DE23C
:1009500093E00C9422028F929F92AF92BF920F93DA
:100960001F93CF93DF93CDB7DEB7A1970FB6F8945F
:10097000DEBF0FBECDBF19A2423008F44AE08E019F
:100980000F5D1F4F842E912CB12CA12CA501940139
:100990000E94470CE62FB901CA01EA30F4F4E05D89
:1009A000D801EE938D01232B242B252B79F790E092
:1009B00080E0109719F0CD010E949E04A1960FB619
:1009C000F894DEBF0FBECDBFDF91CF911F910F9185
:1009D000BF90AF909F908F900895E95CE1CFCF9347
:1009E000DF930E949E04EC0182E292E00E949E044A
:1009F0008C0F9D1FDF91CF91089520912A03809144
:100A00000002909101022817190679F085E292E020
:100A10000E94EF0461E08AE20E94D00380912A03E1
:100A200090E0909301028093000286E10E94A70368
:100A3000892B19F481E08093F60286E10E94A703D6
:100A4000019789F48091F602882369F060E08AE2D8
:100A50000E94D0031092F60280912A038F5F809348
:100A60002A030C948B04089520912A03809100029C
:100A7000909101022817190679F08AE292E00E940B
:100A8000EF0461E08AE20E94D00380912A0390E0A3
:100A9000909301028093000286E10E94A7030197D0
:100AA00059F460E08AE20E94D00380912A038F5FAC
:100AB00080932A030C948B04089520912A0380913B
:100AC00000029091010228171906D1F08FE292E0FE
:100AD0000E94EF0460E08091D1030E94D00361E0A6
:100AE0008091D2030E94D00361E08091D0030E94E4
:100AF000D00380912A0390E090930102809300023A
:100B000088E10E94A703019711F40C9492040895C0
:100B100020912A0380910002909101022817190662
:100B2000D1F084E392E00E94EF0461E08091D10370
:100B30000E94D00360E08091D2030E94D00361E064
:100B40008091D0030E94D00380912A0390E090937B
:100B500001028093000287E10E94A703019711F42C
:100B60000C9492040895CF93DF93BC0190E080E051
:100B70004AE00E94AB04EC0182E292E00E949E04F3
:100B80008C0F9D1FDF91CF9108951F93CF93DF931B
:100B9000EC01188190E080E00E94310C181729F0D8
:100BA000612F90E080E00E94390C198181E090E093
:100BB0000E94310C181729F0612F81E090E00E940B
:100BC000390CCE01DF91CF911F9108950C94310C17
:100BD000CF9381E090E00E94E605C82F90E080E08E
:100BE0000E94E6052C2F30E0322F2227820F932F10
:100BF000911DCF9108950E94E8058F3F9807E9F075
:100C00009093060380930503109228031092270304
:100C100082E090E00E94E6058F3FD1F080930403CC
:100C200086E10E94A7030197D9F089E392E00E9430
:100C3000EF048CE591E00C94050381E090E0909343
:100C400006038093050385E093E00E94C505DCCF91
:100C50001092040360E082E090E00E94390CE0CF43
:100C600087E10E94A703019719F083E492E0DFCFA8
:100C700088E10E94A703892B19F08DE492E0D7CF79
:100C800082E08093070381E08093080310920903B8
:100C900093E0909329032FEF3FEF309301022093CD
:100CA000000210922A0380932B0380932C0361E0AF
:100CB0008BE00E94D00360E08CE00E94D00360E0F3
:100CC0008DE00E94D00387E991E0B5CFFC018081DF
:100CD0009181009711F00C940D0D0895FB01448152
:100CE0005581FC01248135812417350778F08081F6
:100CF0009181009759F0FB01608171816115710547
:100D000029F00E94900E21E0892B09F020E0822F2B
:100D10000895FC0124813581232B39F421E0FB0166
:100D20008081882349F020E007C0808191810E9462
:100D3000800E21E0892BB9F7822F08950F931F931E
:100D4000CF93DF93EC0188819981009759F02A8134
:100D50003B812617370730F081E0DF91CF911F915B
:100D60000F9108958B016F5F7F4F0E94960D009742
:100D700059F0998388831B830A832C813D81232B1F
:100D800059F7FC011082E8CF80E0E7CFEF92FF92A5
:100D90000F931F93CF93DF93EC017B018A01BA017C
:100DA0000E949E0628813981811114C021153105C8
:100DB00019F0C9010E940D0D198218821D821C8232
:100DC0001B821A82CE01DF91CF911F910F91FF906C
:100DD000EF9008951D830C83B701C9010E94890E0D
:100DE000F1CFAF92BF92CF92DF92EF92FF920F932B
:100DF0001F93CF93DF93EC017B016A0185E0A82E5E
:100E0000B12C4530510520F45A0195E0C92ED12C62
:100E1000198218821B821A821D821C8250E040E0D7
:100E200064E272E0CE010E94C606D70114960D91CD
:100E30001C91A016B10628F5C016D10608F486014B
:100E4000D701ED91FC911197E00FF11FD080108236
:100E50006D917C916A0D7B1D61157105F1F0FB01AF
:100E600001900020E9F73197AF01461B570BCE01E7
:100E70000E94C606F70180819181080F191FD801D1
:100E8000DC92CE01DF91CF911F910F91FF90EF90F7
:100E9000DF90CF90BF90AF9008958881998100979F
:100EA00011F00E940D0D198218821D821C821B8276
:100EB0001A82E0CFFC011182108213821282158205
:100EC0001482FB0101900020E9F73197AF01461B26
:100ED000570B0C94C6068F929F92AF92BF92FF92CF
:100EE0000F931F93CF93DF93CDB7DEB72E970FB637
:100EF000F894DEBF0FBECDBFFF24F3948DE293E0E4
:100F00000E948002892B09F453C18DE293E00E9474
:100F10005E028D3009F028C118861F821A86198654
:100F20001C861B866091CA037091CB036115710505
:100F300041F04091CE035091CF03CE0107960E941D
:100F4000C60667E572E0CE0107960E9489068823EF
:100F500029F087EC91E00E9405030AC06CE572E07D
:100F6000CE0107960E948906882379F00E945404D6
:100F7000CE0107960E94660650E040E064E272E00F
:100F80008AEC93E00E94C606B9CF61E672E0CE011A
:100F900007960E948906882319F00E94FB05E8CF76
:100FA00065E672E0CE0107960E948906882319F053
:100FB0000E947904DDCF6BE672E0CE0107960E94B5
:100FC0008906882319F0F0922C03D2CF62E772E0F1
:100FD000CE0107960E948906882329F00E94E80521
:100FE0000E94B305C5CF67E772E0CE0101960E946B
:100FF0005A07BE016F5F7F4FCE0107960E946E06B3
:10100000182FCE0101960E9466061123F1F04B8540
:101010005C85BE01695F7F4FCE0101960E94F1069B
:1010200089819A81009769F00E94F50B7E876D8710
:10103000CE0101960E946606CE010D960E94C5055E
:10104000CDCF60E070E0CB01F1CF6DE772E0CE0173
:1010500007960E948906882329F0809127039091A2
:101060002803BECF62E872E0CE0101960E945A07C3
:10107000BE016F5F7F4FCE0107960E946E06182F4C
:10108000CE0101960E9466061123E9F04B855C852E
:10109000BE01695F7F4FCE0101960E94F1068981F2
:1010A0009A81812C912C5401009719F00E94F50B24
:1010B0004B019092280380922703CE0101960E9453
:1010C0006606C4018DCF68E872E0CE0107960E94E3
:1010D0008906882381F082E090E00E94E605682F6F
:1010E00070E090E080E04AE00E94AB0482E292E08F
:1010F0000E949E043DCF6DE872E0CE0101960E94F1
:101100005A07BE016F5F7F4FCE0107960E946E06A1
:10111000182FCE0101960E94660682EA91E0112303
:1011200009F419CF4B855C85BE01695F7F4FCE0105
:1011300001960E94F10689819A8110E0009719F0CA
:101140000E94F50B162FCE0101960E94660682E0E2
:1011500090E00E94310C181709F4BDCF612F82E096
:1011600090E00E94390CB7CF89831A820091CE0398
:101170001091CF030F5F1F4FB8018AEC93E00E94DC
:101180009E06882309F4BACE2091CA033091CB037E
:101190008091CE039091CF03BE016F5F7F4F820F8E
:1011A000931F0E94890E1093CF030093CE03A6CE07
:1011B0002E960FB6F894DEBF0FBECDBFDF91CF9154
:1011C0001F910F91FF90BF90AF909F908F900895C7
:1011D0000E948C0281110E946B0780E090E0892BB5
:1011E00049F080E090E0892B29F00E9400008111F5
:1011F0000E94000080E090E0892B49F080E090E0C0
:10120000892B29F00E94000081110E94000080E0DB
:1012100090E0892B49F080E090E0892B29F00E9432
:10122000000081110C94000008951F920F920FB6D8
:101230000F9211240BB60F922F933F934F935F930E
:101240006F937F938F939F93AF93BF93EF93FF938E
:101250008DE293E00E949602FF91EF91BF91AF91D2
:101260009F918F917F916F915F914F913F912F91BE
:101270000F900BBE0F900FBE0F901F9018951F92EE
:101280000F920FB60F9211240BB60F922F938F93DC
:101290009F93EF93FF93E0913D03F0913E03808194
:1012A000E0914303F091440382FD1DC09081809141
:1012B00046038F5F8F7320914703821741F0E091BF
:1012C0004603F0E0E35DFC4F958F80934603FF916A
:1012D000EF919F918F912F910F900BBE0F900FBEAA
:1012E0000F901F9018958081F2CF1F920F920FB62A
:1012F0000F9211242F933F938F939F93AF93BF939C
:101300008091F8029091F902A091FA02B091FB024B
:101310003091F70223E0230F2D3758F50196A11DD8
:10132000B11D2093F7028093F8029093F902A093E5
:10133000FA02B093FB028091FC029091FD02A09111
:10134000FE02B091FF020196A11DB11D8093FC0227
:101350009093FD02A093FE02B093FF02BF91AF9164
:101360009F918F913F912F910F900FBE0F901F90E3
:10137000189526E8230F0296A11DB11DD2CFEDE2EC
:10138000F3E01382128288EE93E0A0E0B0E0848361
:101390009583A683B78384E192E09183808385EC73
:1013A00090E09587848784EC90E09787868780EC2F
:1013B00090E0918B808B81EC90E0938B828B82EC20
:1013C00090E0958B848B86EC90E0978B868B118ECA
:1013D000128E138E148E61E083E30E94FE0360E0A0
:1013E00083E30E94D00361E085E30E94FE0361E095
:1013F00084E30E94FE03E0EDF3E083E3808385E372
:10140000818384E3828364E272E08AEC93E00C944B
:101410005A07789484B5826084BD84B5816084BDA8
:1014200085B5826085BD85B5816085BD80916E0082
:10143000816080936E0010928100809181008260B3
:1014400080938100809181008160809381008091F0
:1014500080008160809380008091B10084608093DF
:10146000B1008091B00081608093B00080919100C4
:1014700082608093910080919100816080939100BF
:10148000809190008160809390008091A1008260A3
:101490008093A1008091A10081608093A100809140
:1014A000A00081608093A0008091210182608093E0
:1014B000210180912101816080932101809120018F
:1014C00081608093200180917A00846080937A000B
:1014D00080917A00826080937A0080917A008160A6
:1014E00080937A0080917A00806880937A001092CD
:1014F000C100E0913D03F0913E0382E08083E091E2
:101500003903F0913A031082E0913B03F0913C03E0
:1015100080E1808310924503E0914103F091420302
:1015200086E08083E0913F03F091400380818061F9
:101530008083E0913F03F091400380818860808345
:10154000E0913F03F0914003808180688083E091C7
:101550003F03F091400380818F7D80830E942F04A0
:101560004B015C0194E6C92ED12CE12CF12C0E9498
:101570002F04681979098A099B09683E734081051F
:101580009105A8F321E0C21AD108E108F10888EE1C
:10159000880E83E0981EA11CB11CC114D104E10483
:1015A000F10429F783E992E00E94EF0460E086E10C
:1015B0000E94FE0360E088E10E94FE0360E087E194
:1015C0000E94FE0361E08AE20E94FE0360E082E086
:1015D0000E94FE0360E083E00E94FE0360E084E07E
:1015E0000E94FE0360E085E00E94FE0361E08BE064
:1015F0000E94FE0361E08CE00E94FE0361E08DE04A
:101600000E94FE03C1E082E00E94A703019731F42B
:1016100080910303811102C0C093030382E00E9402
:10162000A703892B41F480910303882321F00E94B2
:1016300054041092030383E00E94A703019731F43E
:1016400080910203811102C0C093020383E00E94D3
:10165000A703892B41F480910203882321F00E9483
:10166000FB051092020384E00E94A703019731F466
:1016700080910103811102C0C093010384E00E94A4
:10168000A703892B41F480910103882321F00E9454
:1016900079041092010385E00E94A703019731F4B9
:1016A00080910003811102C0C093000385E00E9475
:1016B000A703892B41F480910003882321F0C09374
:1016C0002C031092000380912C038130B9F4809197
:1016D0002B03811131C0E0912A0380912903E8177F
:1016E00080F4F0E0E95FFC4FE081F0E0EE0FFF1FD7
:1016F000E85FFD4F0190F081E02D19950E94E80808
:1017000082CF10922C03109228031092270360E0DE
:101710008BE00E94D00361E08CE00E94D00360E087
:101720008DE00E94D0038FEC93E00E9405038FE9C7
:1017300092E00E94EF04E2CF813001F7E0912A03AA
:1017400080912903E81768F280912703909128037C
:101750000196909328038093270386EC92E00E94E1
:101760009E04609127037091280390E080E04AE096
:101770000E94AB0481ED92E00E949E0480910503DB
:10178000909106030E94B30580910403823011F406
:101790000E9479042091270330912803809105034A
:1017A000909106032817390718F410922A03A6CF40
:1017B00010922C03109228031092270360E08BE014
:1017C0000E94D00361E08CE00E94D00360E08DE0D5
:1017D0000E94D0038FEC93E00E94050386ED92E017
:1017E000A8CF8AEC93E00C9466061F93FC0199271E
:1017F0008827BC01E89411911032E9F3193010F0F8
:101800001E30C8F31B3251F01D3249F4689406C0F3
:101810000E941C0C610F711D811D911D11911053AF
:101820001A30B0F33EF490958095709561957F4F96
:101830008F4F9F4F1F910895592F482F372F262FD5
:10184000660F771F881F991F660F771F881F991FC4
:10185000620F731F841F951F660F771F881F991FC4
:101860000895F999FECF92BD81BDF89A992780B568
:101870000895262FF999FECF1FBA92BD81BD20BDD4
:101880000FB6F894FA9AF99A0FBE01960895A1E25C
:101890001A2EAA1BBB1BFD010DC0AA1FBB1FEE1FEA
:1018A000FF1FA217B307E407F50720F0A21BB30B35
:1018B000E40BF50B661F771F881F991F1A9469F7B1
:1018C00060957095809590959B01AC01BD01CF010D
:1018D0000895EE0FFF1F881F8BBF0790F691E02D34
:1018E00019940F931F93CF93DF938230910510F4D7
:1018F00082E090E0E091D503F091D60330E020E063
:10190000B0E0A0E0309799F42115310509F44AC000
:10191000281B390B24303105D8F58A819B8161154C
:10192000710589F1FB0193838283FE0111C040811F
:1019300051810281138148175907E0F04817590770
:1019400099F4109761F012960C93129713961C93CA
:101950003296CF01DF91CF911F910F91089500939F
:10196000D5031093D603F4CF2115310551F042175A
:10197000530738F0A901DB019A01BD01DF01F8012D
:10198000C1CFEF01F9CF9093D6038093D503CDCF8C
:10199000FE01E20FF31F81939193225031093983A5
:1019A0002883D7CF2091D3033091D403232B41F444
:1019B00020910402309105023093D4032093D30385
:1019C00020910202309103022115310541F42DB717
:1019D0003EB74091060250910702241B350BE0915F
:1019E000D303F091D403E217F307A0F42E1B3F0BAF
:1019F0002817390778F0AC014E5F5F4F2417350781
:101A000048F04E0F5F1F5093D4034093D30381934C
:101A100091939FCFF0E0E0E09CCFCF93DF930097CE
:101A2000E9F0FC01329713821282A091D503B091A4
:101A3000D603ED0130E020E01097A1F42081318140
:101A4000820F931F2091D3033091D40328173907B5
:101A500009F061C0F093D403E093D303DF91CF91F9
:101A60000895EA01CE17DF07E8F54A815B819E0100
:101A700041155105B1F7E901FB83EA834991599179
:101A8000C40FD51FEC17FD0761F480819181029688
:101A9000840F951FE90199838883828193819B83B9
:101AA0008A83F0E0E0E012968D919C911397009765
:101AB000B9F52D913C911197CD010296820F931F9C
:101AC0002091D3033091D4032817390739F6309782
:101AD00051F51092D6031092D503B093D403A0937E
:101AE000D303BCCFD383C28340815181840F951F20
:101AF000C817D90761F44E5F5F4F88819981480FFD
:101B0000591F518340838A819B819383828321154E
:101B1000310509F0B0CFF093D603E093D5039ECF03
:101B2000FD01DC01C0CF13821282D7CF4F925F92AA
:101B30006F927F928F929F92AF92BF92CF92DF92DD
:101B4000EF92FF920F931F93CF93DF938C01009737
:101B500099F4CB01DF91CF911F910F91FF90EF90FE
:101B6000DF90CF90BF90AF909F908F907F906F90BD
:101B70005F904F900C94710CFC01E60FF71F9C01D5
:101B800022503109E217F30708F4AEC0D901CD9114
:101B9000DC911197C617D70720F1C530D10578F031
:101BA000CE0104978617970750F0C61BD70B2297D4
:101BB000C193D1936D937C93CF010E940D0DC80109
:101BC000DF91CF911F910F91FF90EF90DF90CF9019
:101BD000BF90AF909F908F907F906F905F904F904D
:101BE00008955B01AC1ABD0A4C018C0E9D1EA0919C
:101BF000D503B091D603512C412CF12CE12C109738
:101C000031F58091D3039091D4038815990509F09B
:101C10005CC04616570608F058C0809102029091A9
:101C20000302009741F48DB79EB740910602509190
:101C30000702841B950BE817F90708F055C0F093CD
:101C4000D403E093D303F90171836083B8CF8D91FE
:101C50009C91119712966C90129713967C90139703
:101C6000A815B90559F56C0142E0C40ED11CCA147F
:101C7000DB0420F1AC014A195B09DA0112961597D1
:101C800080F06282738251834083D9016D937C938B
:101C9000E114F10471F0D7011396FC93EE931297BF
:101CA0008ECF22968C0F9D1FF90191838083F301C3
:101CB000EFCFF093D603E093D50381CF48165906B2
:101CC00008F42C017D01D3019ACFCB010E94710C45
:101CD0007C01009749F0AE01B8010E94770EC8015F
:101CE0000E940D0D87016BCF10E000E068CFFB0173
:101CF000DC0102C001900D9241505040D8F7089588
:101D0000FB01DC018D91019080190110D9F3990B31
:101D10000895FB01DC0101900D920020E1F7089588
:101D2000FB01DC014150504030F08D910190801951
:101D300019F40020B9F7881B990B089511E0CEEE35
:101D4000D1E000E006C0802FFE010E94690C2196C0
:101D5000011DCF3ED10780E00807A9F7F894FFCF17
:101D6000FFFF0000D703800088055D053405FD04F2
:101D700000000000B80222024F02200380025E022F
:101D800072020D0A00534D414E00534D414D005318
:101D90005041460053504142004D4141206E6F7406
:101DA000203100504142206E6F7420310050414676
:101DB000206E6F7420300068656C7000696E697405
:101DC0000072756E00706175736500726573756D74
:101DD00065006578746D006578746D3D0065787494
:101DE0006300657874633D0065786D6F0065786D9C
:101DF0006F3D00496E697469616C697A6564004978
:101E00006E697469616C20636F6E646974696F6E6A
:101E1000732073657175656E636520636F6D706C9B
:101E2000657465642E00436F6D706C657465642025
:101E300000206F6620004D61696E2070726F6772BE
:101E4000616D2073657175656E63652066696E6985
:061E5000736865642E00BA
:00000001FF
